:020000020000FC
:060000000C943400189579
:02000800189549
:02000C00189545
:02001000189541
:0200140018953D
:02001800189539
:06001C000C94CA001895C7
:0200240018952D
:02002800189529
:02002C00189525
:02003000189521
:0200340018951D
:02003800189519
:02003C00189515
:02004000189511
:0200440018950D
:02004800189509
:02004C00189505
:02005000189501
:020054001895FD
:020058001895F9
:02005C001895F5
:020060001895F1
:020064001895ED
:100068000FEF0DBF04E00EBF02E00093B00004E004
:100078000093B10000270093B20009EF0093B3008A
:1000880002E000937000A895009160000861009359
:1000980060000AE0009360000FE003BF002719E04A
:1000A800E0E0F1E001931A95E9F7002716E0E9E0AE
:1000B800F1E001931A95E9F70E94F4007894A89565
:1000C80041E04423E1F3C2E0D1E0288135E0322366
:1000D80011F1F8940D811E817894012BE1F401E06F
:1000E800041B0093010121FD03C02E7F288308C053
:1000F800F8940B811C810D831E83789421602883DA
:1001080022FD32C0E981FA814F93CF93DF9309959D
:10011800DF91CF914F91A89527964A95B1F6009116
:1001280000010E7F0093000100FF8895C8CF4F9310
:100138005F936F937F938F939F93AF93BF93CF9367
:10014800DF93EF93FF93C1E0D1E0299137E0239F3C
:10015800C00DD11DF8942881246028830D831E8347
:100168007894CF93DF93ABCFDF91CF9128812B7F0A
:100178002883FF91EF91DF91CF91BF91AF919F912C
:100188008F917F916F915F914F9108954F934FB7E2
:100198004F93AF93BF93CF93DF93AFE0B1E046E0C7
:1001A80088940E910F4F0C9310F04A95D1F741E0C7
:1001B800442371F0C2E0D1E0A881A57031F0AD818F
:1001C800BE81119710F0AD83BE8327964A95A1F79B
:1001D800DF91CF91BF91AF914F914FBF4F9118953C
:1001E800259AE2E0F1E001E0019300E8019301E0E3
:1001F8000193002701930193019300830895AF931E
:10020800BF93A02FAC7FBB27AA1FBB1FA00FB04076
:10021800189633E0F894F99B0AC078941F933F939B
:1002280001E010E00E949B003F911F91F3CFB2BD07
:10023800A1BDF89A20B5212761F0FD98FC982123EB
:1002480021F01F3F19F4FC9A01C0FD9A10BDFA9ADB
:10025800F99A789414963A95E9F6F894112712BD0C
:1002680011BD7894BF91AF910895AF93BF93A02F1C
:10027800AC7FBB27AA1FBB1FA00FB040189633E066
:10028800F894F99B08C078943F9301E010E00E942D
:100298009B003F91F5CFB2BDA1BDF89A00B5789407
:1002A8000F9314963A9561F72F911F910F910117AB
:1002B80021F40217C9F0149706C0021711F01C9711
:1002C80002C01897102FF894F99B08C078941F93D0
:1002D80001E010E00E949B001F91F5CFB2BDA1BDC7
:1002E80010BDFA9AF99A7894F894002702BD01BDD6
:1002F8007894BF91AF91089501E01FEF80DF00E08F
:1003080013E27DDF01E010E07ADF02E01FEF77DF24
:1003180000E00E94390141E0133241F501E00E94FA
:10032800390142E0103011F502E00E94390143E042
:100338001F3FE1F400E014E362DF01E017E05FDF54
:1003480002E010E15CDF00E00E94390144E0143370
:1003580069F401E00E94390145E0173039F402E000
:100368000E94390146E0103109F411C008EE13E08B
:100378000E949B002D9A04EF11E00E949B002D988B
:1003880008EE13E00E949B004A95A1F7089508EE35
:1003980013E00E949B002D9A04E610E00E949B0047
:1003A8002D9808EC10E00E949B002D9A04E610E0BE
:1003B8000E949B002D9808EC10E00E949B002D9A4B
:0C03C80004E610E00E949B002D98E0CF9E
:00000001FF
